{
  "_format": "hh-sol-artifact-1",
  "contractName": "GREATDANEAI",
  "sourceName": "contracts/TwelveKnights.sol",
  "abi": [
    {
      "inputs": [],
      "stateMutability": "nonpayable",
      "type": "constructor"
    },
    {
      "anonymous": false,
      "inputs": [
        {
          "indexed": true,
          "internalType": "address",
          "name": "owner",
          "type": "address"
        },
        {
          "indexed": true,
          "internalType": "address",
          "name": "approved",
          "type": "address"
        },
        {
          "indexed": true,
          "internalType": "uint256",
          "name": "tokenId",
          "type": "uint256"
        }
      ],
      "name": "Approval",
      "type": "event"
    },
    {
      "anonymous": false,
      "inputs": [
        {
          "indexed": true,
          "internalType": "address",
          "name": "owner",
          "type": "address"
        },
        {
          "indexed": true,
          "internalType": "address",
          "name": "operator",
          "type": "address"
        },
        {
          "indexed": false,
          "internalType": "bool",
          "name": "approved",
          "type": "bool"
        }
      ],
      "name": "ApprovalForAll",
      "type": "event"
    },
    {
      "anonymous": false,
      "inputs": [
        {
          "indexed": true,
          "internalType": "address",
          "name": "previousOwner",
          "type": "address"
        },
        {
          "indexed": true,
          "internalType": "address",
          "name": "newOwner",
          "type": "address"
        }
      ],
      "name": "OwnershipTransferred",
      "type": "event"
    },
    {
      "anonymous": false,
      "inputs": [
        {
          "indexed": true,
          "internalType": "address",
          "name": "from",
          "type": "address"
        },
        {
          "indexed": true,
          "internalType": "address",
          "name": "to",
          "type": "address"
        },
        {
          "indexed": true,
          "internalType": "uint256",
          "name": "tokenId",
          "type": "uint256"
        }
      ],
      "name": "Transfer",
      "type": "event"
    },
    {
      "inputs": [],
      "name": "MAX_NFT_SUPPLY",
      "outputs": [
        {
          "internalType": "uint256",
          "name": "",
          "type": "uint256"
        }
      ],
      "stateMutability": "view",
      "type": "function"
    },
    {
      "inputs": [],
      "name": "Reveal",
      "outputs": [],
      "stateMutability": "nonpayable",
      "type": "function"
    },
    {
      "inputs": [],
      "name": "UnReveal",
      "outputs": [],
      "stateMutability": "nonpayable",
      "type": "function"
    },
    {
      "inputs": [],
      "name": "_price",
      "outputs": [
        {
          "internalType": "uint256",
          "name": "",
          "type": "uint256"
        }
      ],
      "stateMutability": "view",
      "type": "function"
    },
    {
      "inputs": [
        {
          "internalType": "address",
          "name": "to",
          "type": "address"
        },
        {
          "internalType": "uint256",
          "name": "tokenId",
          "type": "uint256"
        }
      ],
      "name": "approve",
      "outputs": [],
      "stateMutability": "nonpayable",
      "type": "function"
    },
    {
      "inputs": [
        {
          "internalType": "address",
          "name": "owner",
          "type": "address"
        }
      ],
      "name": "balanceOf",
      "outputs": [
        {
          "internalType": "uint256",
          "name": "",
          "type": "uint256"
        }
      ],
      "stateMutability": "view",
      "type": "function"
    },
    {
      "inputs": [
        {
          "internalType": "uint256",
          "name": "_cnt",
          "type": "uint256"
        }
      ],
      "name": "claimNFTForOwner",
      "outputs": [],
      "stateMutability": "nonpayable",
      "type": "function"
    },
    {
      "inputs": [
        {
          "internalType": "uint256",
          "name": "tokenId",
          "type": "uint256"
        }
      ],
      "name": "getApproved",
      "outputs": [
        {
          "internalType": "address",
          "name": "",
          "type": "address"
        }
      ],
      "stateMutability": "view",
      "type": "function"
    },
    {
      "inputs": [
        {
          "internalType": "address",
          "name": "_owner",
          "type": "address"
        }
      ],
      "name": "getNFTBalance",
      "outputs": [
        {
          "internalType": "uint256",
          "name": "",
          "type": "uint256"
        }
      ],
      "stateMutability": "view",
      "type": "function"
    },
    {
      "inputs": [],
      "name": "getNFTPrice",
      "outputs": [
        {
          "internalType": "uint256",
          "name": "",
          "type": "uint256"
        }
      ],
      "stateMutability": "view",
      "type": "function"
    },
    {
      "inputs": [
        {
          "internalType": "address",
          "name": "owner",
          "type": "address"
        },
        {
          "internalType": "address",
          "name": "operator",
          "type": "address"
        }
      ],
      "name": "isApprovedForAll",
      "outputs": [
        {
          "internalType": "bool",
          "name": "",
          "type": "bool"
        }
      ],
      "stateMutability": "view",
      "type": "function"
    },
    {
      "inputs": [
        {
          "internalType": "uint256",
          "name": "_cnt",
          "type": "uint256"
        }
      ],
      "name": "mintNFT",
      "outputs": [],
      "stateMutability": "payable",
      "type": "function"
    },
    {
      "inputs": [],
      "name": "name",
      "outputs": [
        {
          "internalType": "string",
          "name": "",
          "type": "string"
        }
      ],
      "stateMutability": "view",
      "type": "function"
    },
    {
      "inputs": [],
      "name": "owner",
      "outputs": [
        {
          "internalType": "address",
          "name": "",
          "type": "address"
        }
      ],
      "stateMutability": "view",
      "type": "function"
    },
    {
      "inputs": [
        {
          "internalType": "uint256",
          "name": "tokenId",
          "type": "uint256"
        }
      ],
      "name": "ownerOf",
      "outputs": [
        {
          "internalType": "address",
          "name": "",
          "type": "address"
        }
      ],
      "stateMutability": "view",
      "type": "function"
    },
    {
      "inputs": [],
      "name": "pause",
      "outputs": [],
      "stateMutability": "nonpayable",
      "type": "function"
    },
    {
      "inputs": [],
      "name": "pauseMint",
      "outputs": [
        {
          "internalType": "bool",
          "name": "",
          "type": "bool"
        }
      ],
      "stateMutability": "view",
      "type": "function"
    },
    {
      "inputs": [],
      "name": "publicSale",
      "outputs": [
        {
          "internalType": "bool",
          "name": "",
          "type": "bool"
        }
      ],
      "stateMutability": "view",
      "type": "function"
    },
    {
      "inputs": [],
      "name": "renounceOwnership",
      "outputs": [],
      "stateMutability": "nonpayable",
      "type": "function"
    },
    {
      "inputs": [],
      "name": "reveal",
      "outputs": [
        {
          "internalType": "bool",
          "name": "",
          "type": "bool"
        }
      ],
      "stateMutability": "view",
      "type": "function"
    },
    {
      "inputs": [
        {
          "internalType": "address",
          "name": "from",
          "type": "address"
        },
        {
          "internalType": "address",
          "name": "to",
          "type": "address"
        },
        {
          "internalType": "uint256",
          "name": "tokenId",
          "type": "uint256"
        }
      ],
      "name": "safeTransferFrom",
      "outputs": [],
      "stateMutability": "nonpayable",
      "type": "function"
    },
    {
      "inputs": [
        {
          "internalType": "address",
          "name": "from",
          "type": "address"
        },
        {
          "internalType": "address",
          "name": "to",
          "type": "address"
        },
        {
          "internalType": "uint256",
          "name": "tokenId",
          "type": "uint256"
        },
        {
          "internalType": "bytes",
          "name": "_data",
          "type": "bytes"
        }
      ],
      "name": "safeTransferFrom",
      "outputs": [],
      "stateMutability": "nonpayable",
      "type": "function"
    },
    {
      "inputs": [
        {
          "internalType": "address",
          "name": "operator",
          "type": "address"
        },
        {
          "internalType": "bool",
          "name": "approved",
          "type": "bool"
        }
      ],
      "name": "setApprovalForAll",
      "outputs": [],
      "stateMutability": "nonpayable",
      "type": "function"
    },
    {
      "inputs": [
        {
          "internalType": "string",
          "name": "baseURI_",
          "type": "string"
        }
      ],
      "name": "setBaseURI",
      "outputs": [],
      "stateMutability": "nonpayable",
      "type": "function"
    },
    {
      "inputs": [
        {
          "internalType": "bool",
          "name": "_endSale",
          "type": "bool"
        }
      ],
      "name": "setEndSale",
      "outputs": [],
      "stateMutability": "nonpayable",
      "type": "function"
    },
    {
      "inputs": [
        {
          "internalType": "uint256",
          "name": "_priceextended_",
          "type": "uint256"
        }
      ],
      "name": "setPrice",
      "outputs": [],
      "stateMutability": "nonpayable",
      "type": "function"
    },
    {
      "inputs": [
        {
          "internalType": "bool",
          "name": "_publicSale",
          "type": "bool"
        }
      ],
      "name": "setPublicSale",
      "outputs": [],
      "stateMutability": "nonpayable",
      "type": "function"
    },
    {
      "inputs": [
        {
          "internalType": "string",
          "name": "_uri",
          "type": "string"
        }
      ],
      "name": "setUnrevealURI",
      "outputs": [],
      "stateMutability": "nonpayable",
      "type": "function"
    },
    {
      "inputs": [
        {
          "internalType": "address",
          "name": "_add",
          "type": "address"
        }
      ],
      "name": "setWhitelist",
      "outputs": [],
      "stateMutability": "nonpayable",
      "type": "function"
    },
    {
      "inputs": [
        {
          "internalType": "address[]",
          "name": "_adds",
          "type": "address[]"
        }
      ],
      "name": "setWhitelistAll",
      "outputs": [],
      "stateMutability": "nonpayable",
      "type": "function"
    },
    {
      "inputs": [
        {
          "internalType": "bytes4",
          "name": "interfaceId",
          "type": "bytes4"
        }
      ],
      "name": "supportsInterface",
      "outputs": [
        {
          "internalType": "bool",
          "name": "",
          "type": "bool"
        }
      ],
      "stateMutability": "view",
      "type": "function"
    },
    {
      "inputs": [],
      "name": "symbol",
      "outputs": [
        {
          "internalType": "string",
          "name": "",
          "type": "string"
        }
      ],
      "stateMutability": "view",
      "type": "function"
    },
    {
      "inputs": [
        {
          "internalType": "uint256",
          "name": "index",
          "type": "uint256"
        }
      ],
      "name": "tokenByIndex",
      "outputs": [
        {
          "internalType": "uint256",
          "name": "",
          "type": "uint256"
        }
      ],
      "stateMutability": "view",
      "type": "function"
    },
    {
      "inputs": [],
      "name": "tokenMinted",
      "outputs": [
        {
          "internalType": "uint256",
          "name": "",
          "type": "uint256"
        }
      ],
      "stateMutability": "view",
      "type": "function"
    },
    {
      "inputs": [
        {
          "internalType": "address",
          "name": "owner",
          "type": "address"
        },
        {
          "internalType": "uint256",
          "name": "index",
          "type": "uint256"
        }
      ],
      "name": "tokenOfOwnerByIndex",
      "outputs": [
        {
          "internalType": "uint256",
          "name": "",
          "type": "uint256"
        }
      ],
      "stateMutability": "view",
      "type": "function"
    },
    {
      "inputs": [
        {
          "internalType": "uint256",
          "name": "tokenId",
          "type": "uint256"
        }
      ],
      "name": "tokenURI",
      "outputs": [
        {
          "internalType": "string",
          "name": "",
          "type": "string"
        }
      ],
      "stateMutability": "view",
      "type": "function"
    },
    {
      "inputs": [],
      "name": "totalSupply",
      "outputs": [
        {
          "internalType": "uint256",
          "name": "",
          "type": "uint256"
        }
      ],
      "stateMutability": "view",
      "type": "function"
    },
    {
      "inputs": [
        {
          "internalType": "address",
          "name": "from",
          "type": "address"
        },
        {
          "internalType": "address",
          "name": "to",
          "type": "address"
        },
        {
          "internalType": "uint256",
          "name": "tokenId",
          "type": "uint256"
        }
      ],
      "name": "transferFrom",
      "outputs": [],
      "stateMutability": "nonpayable",
      "type": "function"
    },
    {
      "inputs": [
        {
          "internalType": "address",
          "name": "newOwner",
          "type": "address"
        }
      ],
      "name": "transferOwnership",
      "outputs": [],
      "stateMutability": "nonpayable",
      "type": "function"
    },
    {
      "inputs": [],
      "name": "unPause",
      "outputs": [],
      "stateMutability": "nonpayable",
      "type": "function"
    },
    {
      "inputs": [],
      "name": "unrevealURI",
      "outputs": [
        {
          "internalType": "string",
          "name": "",
          "type": "string"
        }
      ],
      "stateMutability": "view",
      "type": "function"
    },
    {
      "inputs": [],
      "name": "withdraw",
      "outputs": [],
      "stateMutability": "nonpayable",
      "type": "function"
    }
  ],
  "bytecode": "0x60806040526000600b60146101000a81548160ff0219169083151502179055506040518060a00160405280606681526020016200575060669139600e9080519060200190620000509291906200025d565b506000600f60006101000a81548160ff0219169083151502179055506000600f60016101000a81548160ff0219169083151502179055506040518060400160405280601581526020017f68747470733a2f2f697066732e696f2f697066732f000000000000000000000081525060109080519060200190620000d49291906200025d565b50670de0b6b3a764000060115560006012556001601360006101000a81548160ff0219169083151502179055503480156200010e57600080fd5b506040518060400160405280600d81526020017f47524541542044414e45204149000000000000000000000000000000000000008152506040518060400160405280600381526020017f47444100000000000000000000000000000000000000000000000000000000008152508160009080519060200190620001939291906200025d565b508060019080519060200190620001ac9291906200025d565b505050620001bf6200025560201b60201c565b600a60006101000a81548173ffffffffffffffffffffffffffffffffffffffff021916908373ffffffffffffffffffffffffffffffffffffffff1602179055506200020f6200025560201b60201c565b600b60006101000a81548173ffffffffffffffffffffffffffffffffffffffff021916908373ffffffffffffffffffffffffffffffffffffffff16021790555062000372565b600033905090565b8280546200026b906200033c565b90600052602060002090601f0160209004810192826200028f5760008555620002db565b82601f10620002aa57805160ff1916838001178555620002db565b82800160010185558215620002db579182015b82811115620002da578251825591602001919060010190620002bd565b5b509050620002ea9190620002ee565b5090565b5b8082111562000309576000816000905550600101620002ef565b5090565b7f4e487b7100000000000000000000000000000000000000000000000000000000600052602260045260246000fd5b600060028204905060018216806200035557607f821691505b602082108114156200036c576200036b6200030d565b5b50919050565b6153ce80620003826000396000f3fe6080604052600436106102515760003560e01c8063715018a611610139578063a475b5dd116100b6578063cd85cdb51161007a578063cd85cdb514610867578063dee6dd4114610892578063e985e9c5146108bb578063f2fde38b146108f8578063f7b188a514610921578063fb107a4f1461093857610251565b8063a475b5dd1461076e578063b5077f4414610799578063b88d4fde146107c4578063bf8ebd85146107ed578063c87b56dd1461082a57610251565b806392642744116100fd57806392642744146106aa57806395d89b41146106c657806396356355146106f157806397bc411c1461071c578063a22cb4651461074557610251565b8063715018a6146105ff5780638456cb5914610616578063854cff2f1461062d5780638da5cb5b1461065657806391b7f5ed1461068157610251565b806333bc1c5c116101d25780635aca1bb6116101965780635aca1bb6146105055780636352211e1461052e578063650db3ac1461056b57806366b9f0d214610594578063672cb658146105ab57806370a08231146105c257610251565b806333bc1c5c146104345780633ccfd60b1461045f57806342842e0e146104765780634f6ccce71461049f57806355f804b3146104dc57610251565b80632126ea81116102195780632126ea811461034f578063235b6ea11461037a57806323b872dd146103a55780632f745c59146103ce57806330b314da1461040b57610251565b806301ffc9a71461025657806306fdde0314610293578063081812fc146102be578063095ea7b3146102fb57806318160ddd14610324575b600080fd5b34801561026257600080fd5b5061027d60048036038101906102789190613a9f565b610963565b60405161028a9190613ae7565b60405180910390f35b34801561029f57600080fd5b506102a86109dd565b6040516102b59190613b9b565b60405180910390f35b3480156102ca57600080fd5b506102e560048036038101906102e09190613bf3565b610a6f565b6040516102f29190613c61565b60405180910390f35b34801561030757600080fd5b50610322600480360381019061031d9190613ca8565b610af4565b005b34801561033057600080fd5b50610339610c0c565b6040516103469190613cf7565b60405180910390f35b34801561035b57600080fd5b50610364610c19565b6040516103719190613b9b565b60405180910390f35b34801561038657600080fd5b5061038f610ca7565b60405161039c9190613cf7565b60405180910390f35b3480156103b157600080fd5b506103cc60048036038101906103c79190613d12565b610cb1565b005b3480156103da57600080fd5b506103f560048036038101906103f09190613ca8565b610d11565b6040516104029190613cf7565b60405180910390f35b34801561041757600080fd5b50610432600480360381019061042d9190613bf3565b610db6565b005b34801561044057600080fd5b50610449610f8d565b6040516104569190613ae7565b60405180910390f35b34801561046b57600080fd5b50610474610fa0565b005b34801561048257600080fd5b5061049d60048036038101906104989190613d12565b61116e565b005b3480156104ab57600080fd5b506104c660048036038101906104c19190613bf3565b61118e565b6040516104d39190613cf7565b60405180910390f35b3480156104e857600080fd5b5061050360048036038101906104fe9190613e9a565b6111ff565b005b34801561051157600080fd5b5061052c60048036038101906105279190613f0f565b6112f4565b005b34801561053a57600080fd5b5061055560048036038101906105509190613bf3565b6113ec565b6040516105629190613c61565b60405180910390f35b34801561057757600080fd5b50610592600480360381019061058d9190614004565b61149e565b005b3480156105a057600080fd5b506105a9611614565b005b3480156105b757600080fd5b506105c061170c565b005b3480156105ce57600080fd5b506105e960048036038101906105e4919061404d565b611804565b6040516105f69190613cf7565b60405180910390f35b34801561060b57600080fd5b506106146118bc565b005b34801561062257600080fd5b5061062b6119a3565b005b34801561063957600080fd5b50610654600480360381019061064f919061404d565b611a9b565b005b34801561066257600080fd5b5061066b611c41565b6040516106789190613c61565b60405180910390f35b34801561068d57600080fd5b506106a860048036038101906106a39190613bf3565b611c6b565b005b6106c460048036038101906106bf9190613bf3565b611d50565b005b3480156106d257600080fd5b506106db611fe6565b6040516106e89190613b9b565b60405180910390f35b3480156106fd57600080fd5b50610706612078565b6040516107139190613cf7565b60405180910390f35b34801561072857600080fd5b50610743600480360381019061073e9190613e9a565b61207e565b005b34801561075157600080fd5b5061076c6004803603810190610767919061407a565b612173565b005b34801561077a57600080fd5b50610783612189565b6040516107909190613ae7565b60405180910390f35b3480156107a557600080fd5b506107ae61219c565b6040516107bb9190613cf7565b60405180910390f35b3480156107d057600080fd5b506107eb60048036038101906107e6919061415b565b6121a2565b005b3480156107f957600080fd5b50610814600480360381019061080f919061404d565b612204565b6040516108219190613cf7565b60405180910390f35b34801561083657600080fd5b50610851600480360381019061084c9190613bf3565b612216565b60405161085e9190613b9b565b60405180910390f35b34801561087357600080fd5b5061087c612365565b6040516108899190613ae7565b60405180910390f35b34801561089e57600080fd5b506108b960048036038101906108b49190613f0f565b612378565b005b3480156108c757600080fd5b506108e260048036038101906108dd91906141de565b612470565b6040516108ef9190613ae7565b60405180910390f35b34801561090457600080fd5b5061091f600480360381019061091a919061404d565b612504565b005b34801561092d57600080fd5b5061093661265b565b005b34801561094457600080fd5b5061094d612753565b60405161095a9190613cf7565b60405180910390f35b60007f780e9d63000000000000000000000000000000000000000000000000000000007bffffffffffffffffffffffffffffffffffffffffffffffffffffffff1916827bffffffffffffffffffffffffffffffffffffffffffffffffffffffff191614806109d657506109d5826127a3565b5b9050919050565b6060600080546109ec9061424d565b80601f0160208091040260200160405190810160405280929190818152602001828054610a189061424d565b8015610a655780601f10610a3a57610100808354040283529160200191610a65565b820191906000526020600020905b815481529060010190602001808311610a4857829003601f168201915b5050505050905090565b6000610a7a82612885565b610ab9576040517f08c379a0000000000000000000000000000000000000000000000000000000008152600401610ab0906142f1565b60405180910390fd5b6004600083815260200190815260200160002060009054906101000a900473ffffffffffffffffffffffffffffffffffffffff169050919050565b6000610aff826113ec565b90508073ffffffffffffffffffffffffffffffffffffffff168373ffffffffffffffffffffffffffffffffffffffff161415610b70576040517f08c379a0000000000000000000000000000000000000000000000000000000008152600401610b6790614383565b60405180910390fd5b8073ffffffffffffffffffffffffffffffffffffffff16610b8f6128f1565b73ffffffffffffffffffffffffffffffffffffffff161480610bbe5750610bbd81610bb86128f1565b612470565b5b610bfd576040517f08c379a0000000000000000000000000000000000000000000000000000000008152600401610bf490614415565b60405180910390fd5b610c0783836128f9565b505050565b6000600880549050905090565b600e8054610c269061424d565b80601f0160208091040260200160405190810160405280929190818152602001828054610c529061424d565b8015610c9f5780601f10610c7457610100808354040283529160200191610c9f565b820191906000526020600020905b815481529060010190602001808311610c8257829003601f168201915b505050505081565b6000601154905090565b610cc2610cbc6128f1565b826129b2565b610d01576040517f08c379a0000000000000000000000000000000000000000000000000000000008152600401610cf8906144a7565b60405180910390fd5b610d0c838383612a90565b505050565b6000610d1c83611804565b8210610d5d576040517f08c379a0000000000000000000000000000000000000000000000000000000008152600401610d5490614539565b60405180910390fd5b600660008473ffffffffffffffffffffffffffffffffffffffff1673ffffffffffffffffffffffffffffffffffffffff168152602001908152602001600020600083815260200190815260200160002054905092915050565b610dbe6128f1565b73ffffffffffffffffffffffffffffffffffffffff16610ddc611c41565b73ffffffffffffffffffffffffffffffffffffffff161480610e525750610e016128f1565b73ffffffffffffffffffffffffffffffffffffffff16600b60009054906101000a900473ffffffffffffffffffffffffffffffffffffffff1673ffffffffffffffffffffffffffffffffffffffff16145b610e91576040517f08c379a0000000000000000000000000000000000000000000000000000000008152600401610e88906145a5565b60405180910390fd5b60008111610e9e57600080fd5b601360009054906101000a900460ff1615610eee576040517f08c379a0000000000000000000000000000000000000000000000000000000008152600401610ee590614611565b60405180910390fd5b610ee460125410610f34576040517f08c379a0000000000000000000000000000000000000000000000000000000008152600401610f2b9061467d565b60405180910390fd5b60005b81811015610f8957610f496014612cec565b610f5c33610f576014612d02565b612d10565b600160126000828254610f6f91906146cc565b925050819055508080610f8190614722565b915050610f37565b5050565b600b60149054906101000a900460ff1681565b610fa86128f1565b73ffffffffffffffffffffffffffffffffffffffff16610fc6611c41565b73ffffffffffffffffffffffffffffffffffffffff16148061103c5750610feb6128f1565b73ffffffffffffffffffffffffffffffffffffffff16600b60009054906101000a900473ffffffffffffffffffffffffffffffffffffffff1673ffffffffffffffffffffffffffffffffffffffff16145b61107b576040517f08c379a0000000000000000000000000000000000000000000000000000000008152600401611072906145a5565b60405180910390fd5b600f60019054906101000a900460ff166110ca576040517f08c379a00000000000000000000000000000000000000000000000000000000081526004016110c1906147b7565b60405180910390fd5b600f60009054906101000a900460ff16611119576040517f08c379a0000000000000000000000000000000000000000000000000000000008152600401611110906147b7565b60405180910390fd5b600047905060003390508073ffffffffffffffffffffffffffffffffffffffff166108fc839081150290604051600060405180830381858888f19350505050158015611169573d6000803e3d6000fd5b505050565b611189838383604051806020016040528060008152506121a2565b505050565b6000611198610c0c565b82106111d9576040517f08c379a00000000000000000000000000000000000000000000000000000000081526004016111d090614849565b60405180910390fd5b600882815481106111ed576111ec614869565b5b90600052602060002001549050919050565b6112076128f1565b73ffffffffffffffffffffffffffffffffffffffff16611225611c41565b73ffffffffffffffffffffffffffffffffffffffff16148061129b575061124a6128f1565b73ffffffffffffffffffffffffffffffffffffffff16600b60009054906101000a900473ffffffffffffffffffffffffffffffffffffffff1673ffffffffffffffffffffffffffffffffffffffff16145b6112da576040517f08c379a00000000000000000000000000000000000000000000000000000000081526004016112d1906145a5565b60405180910390fd5b80601090805190602001906112f0929190613990565b5050565b6112fc6128f1565b73ffffffffffffffffffffffffffffffffffffffff1661131a611c41565b73ffffffffffffffffffffffffffffffffffffffff161480611390575061133f6128f1565b73ffffffffffffffffffffffffffffffffffffffff16600b60009054906101000a900473ffffffffffffffffffffffffffffffffffffffff1673ffffffffffffffffffffffffffffffffffffffff16145b6113cf576040517f08c379a00000000000000000000000000000000000000000000000000000000081526004016113c6906145a5565b60405180910390fd5b80600b60146101000a81548160ff02191690831515021790555050565b6000806002600084815260200190815260200160002060009054906101000a900473ffffffffffffffffffffffffffffffffffffffff169050600073ffffffffffffffffffffffffffffffffffffffff168173ffffffffffffffffffffffffffffffffffffffff161415611495576040517f08c379a000000000000000000000000000000000000000000000000000000000815260040161148c9061490a565b60405180910390fd5b80915050919050565b6114a66128f1565b73ffffffffffffffffffffffffffffffffffffffff166114c4611c41565b73ffffffffffffffffffffffffffffffffffffffff16148061153a57506114e96128f1565b73ffffffffffffffffffffffffffffffffffffffff16600b60009054906101000a900473ffffffffffffffffffffffffffffffffffffffff1673ffffffffffffffffffffffffffffffffffffffff16145b611579576040517f08c379a0000000000000000000000000000000000000000000000000000000008152600401611570906145a5565b60405180910390fd5b60005b815181101561161057600082828151811061159a57611599614869565b5b602002602001015190506001600c60008373ffffffffffffffffffffffffffffffffffffffff1673ffffffffffffffffffffffffffffffffffffffff16815260200190815260200160002060006101000a81548160ff02191690831515021790555050808061160890614722565b91505061157c565b5050565b61161c6128f1565b73ffffffffffffffffffffffffffffffffffffffff1661163a611c41565b73ffffffffffffffffffffffffffffffffffffffff1614806116b0575061165f6128f1565b73ffffffffffffffffffffffffffffffffffffffff16600b60009054906101000a900473ffffffffffffffffffffffffffffffffffffffff1673ffffffffffffffffffffffffffffffffffffffff16145b6116ef576040517f08c379a00000000000000000000000000000000000000000000000000000000081526004016116e6906145a5565b60405180910390fd5b6001600f60006101000a81548160ff021916908315150217905550565b6117146128f1565b73ffffffffffffffffffffffffffffffffffffffff16611732611c41565b73ffffffffffffffffffffffffffffffffffffffff1614806117a857506117576128f1565b73ffffffffffffffffffffffffffffffffffffffff16600b60009054906101000a900473ffffffffffffffffffffffffffffffffffffffff1673ffffffffffffffffffffffffffffffffffffffff16145b6117e7576040517f08c379a00000000000000000000000000000000000000000000000000000000081526004016117de906145a5565b60405180910390fd5b6000600f60006101000a81548160ff021916908315150217905550565b60008073ffffffffffffffffffffffffffffffffffffffff168273ffffffffffffffffffffffffffffffffffffffff161415611875576040517f08c379a000000000000000000000000000000000000000000000000000000000815260040161186c9061499c565b60405180910390fd5b600360008373ffffffffffffffffffffffffffffffffffffffff1673ffffffffffffffffffffffffffffffffffffffff168152602001908152602001600020549050919050565b6118c46128f1565b73ffffffffffffffffffffffffffffffffffffffff166118e2611c41565b73ffffffffffffffffffffffffffffffffffffffff16148061195857506119076128f1565b73ffffffffffffffffffffffffffffffffffffffff16600b60009054906101000a900473ffffffffffffffffffffffffffffffffffffffff1673ffffffffffffffffffffffffffffffffffffffff16145b611997576040517f08c379a000000000000000000000000000000000000000000000000000000000815260040161198e906145a5565b60405180910390fd5b6119a16000612d2e565b565b6119ab6128f1565b73ffffffffffffffffffffffffffffffffffffffff166119c9611c41565b73ffffffffffffffffffffffffffffffffffffffff161480611a3f57506119ee6128f1565b73ffffffffffffffffffffffffffffffffffffffff16600b60009054906101000a900473ffffffffffffffffffffffffffffffffffffffff1673ffffffffffffffffffffffffffffffffffffffff16145b611a7e576040517f08c379a0000000000000000000000000000000000000000000000000000000008152600401611a75906145a5565b60405180910390fd5b6001601360006101000a81548160ff021916908315150217905550565b611aa36128f1565b73ffffffffffffffffffffffffffffffffffffffff16611ac1611c41565b73ffffffffffffffffffffffffffffffffffffffff161480611b375750611ae66128f1565b73ffffffffffffffffffffffffffffffffffffffff16600b60009054906101000a900473ffffffffffffffffffffffffffffffffffffffff1673ffffffffffffffffffffffffffffffffffffffff16145b611b76576040517f08c379a0000000000000000000000000000000000000000000000000000000008152600401611b6d906145a5565b60405180910390fd5b600073ffffffffffffffffffffffffffffffffffffffff168173ffffffffffffffffffffffffffffffffffffffff161415611be6576040517f08c379a0000000000000000000000000000000000000000000000000000000008152600401611bdd90614a08565b60405180910390fd5b6001600c60008373ffffffffffffffffffffffffffffffffffffffff1673ffffffffffffffffffffffffffffffffffffffff16815260200190815260200160002060006101000a81548160ff02191690831515021790555050565b6000600a60009054906101000a900473ffffffffffffffffffffffffffffffffffffffff16905090565b611c736128f1565b73ffffffffffffffffffffffffffffffffffffffff16611c91611c41565b73ffffffffffffffffffffffffffffffffffffffff161480611d075750611cb66128f1565b73ffffffffffffffffffffffffffffffffffffffff16600b60009054906101000a900473ffffffffffffffffffffffffffffffffffffffff1673ffffffffffffffffffffffffffffffffffffffff16145b611d46576040517f08c379a0000000000000000000000000000000000000000000000000000000008152600401611d3d906145a5565b60405180910390fd5b8060118190555050565b60008111611d5d57600080fd5b601360009054906101000a900460ff1615611dad576040517f08c379a0000000000000000000000000000000000000000000000000000000008152600401611da490614611565b60405180910390fd5b610ee460125410611df3576040517f08c379a0000000000000000000000000000000000000000000000000000000008152600401611dea9061467d565b60405180910390fd5b34611e0e82611e00612753565b612df490919063ffffffff16565b14611e4e576040517f08c379a0000000000000000000000000000000000000000000000000000000008152600401611e4590614a74565b60405180910390fd5b600b60149054906101000a900460ff16611f3357600c60003373ffffffffffffffffffffffffffffffffffffffff1673ffffffffffffffffffffffffffffffffffffffff16815260200190815260200160002060009054906101000a900460ff16611eee576040517f08c379a0000000000000000000000000000000000000000000000000000000008152600401611ee590614ae0565b60405180910390fd5b6005811115611f32576040517f08c379a0000000000000000000000000000000000000000000000000000000008152600401611f2990614b4c565b60405180910390fd5b5b600b60149054906101000a900460ff1615611f8d57600a811115611f8c576040517f08c379a0000000000000000000000000000000000000000000000000000000008152600401611f8390614b4c565b60405180910390fd5b5b60005b81811015611fe257611fa26014612cec565b611fb533611fb06014612d02565b612d10565b600160126000828254611fc891906146cc565b925050819055508080611fda90614722565b915050611f90565b5050565b606060018054611ff59061424d565b80601f01602080910402602001604051908101604052809291908181526020018280546120219061424d565b801561206e5780601f106120435761010080835404028352916020019161206e565b820191906000526020600020905b81548152906001019060200180831161205157829003601f168201915b5050505050905090565b60125481565b6120866128f1565b73ffffffffffffffffffffffffffffffffffffffff166120a4611c41565b73ffffffffffffffffffffffffffffffffffffffff16148061211a57506120c96128f1565b73ffffffffffffffffffffffffffffffffffffffff16600b60009054906101000a900473ffffffffffffffffffffffffffffffffffffffff1673ffffffffffffffffffffffffffffffffffffffff16145b612159576040517f08c379a0000000000000000000000000000000000000000000000000000000008152600401612150906145a5565b60405180910390fd5b80600e908051906020019061216f929190613990565b5050565b61218561217e6128f1565b8383612e0a565b5050565b600f60009054906101000a900460ff1681565b610ee481565b6121b36121ad6128f1565b836129b2565b6121f2576040517f08c379a00000000000000000000000000000000000000000000000000000000081526004016121e9906144a7565b60405180910390fd5b6121fe84848484612f77565b50505050565b600061220f82611804565b9050919050565b606061222182612885565b612260576040517f08c379a000000000000000000000000000000000000000000000000000000000815260040161225790614bde565b60405180910390fd5b600f60009054906101000a900460ff1661230657600e80546122819061424d565b80601f01602080910402602001604051908101604052809291908181526020018280546122ad9061424d565b80156122fa5780601f106122cf576101008083540402835291602001916122fa565b820191906000526020600020905b8154815290600101906020018083116122dd57829003601f168201915b50505050509050612360565b6000601080546123159061424d565b905011612331576040518060200160405280600081525061235d565b601061233c83612fd3565b60405160200161234d929190614d1a565b6040516020818303038152906040525b90505b919050565b601360009054906101000a900460ff1681565b6123806128f1565b73ffffffffffffffffffffffffffffffffffffffff1661239e611c41565b73ffffffffffffffffffffffffffffffffffffffff16148061241457506123c36128f1565b73ffffffffffffffffffffffffffffffffffffffff16600b60009054906101000a900473ffffffffffffffffffffffffffffffffffffffff1673ffffffffffffffffffffffffffffffffffffffff16145b612453576040517f08c379a000000000000000000000000000000000000000000000000000000000815260040161244a906145a5565b60405180910390fd5b80600f60016101000a81548160ff02191690831515021790555050565b6000600560008473ffffffffffffffffffffffffffffffffffffffff1673ffffffffffffffffffffffffffffffffffffffff16815260200190815260200160002060008373ffffffffffffffffffffffffffffffffffffffff1673ffffffffffffffffffffffffffffffffffffffff16815260200190815260200160002060009054906101000a900460ff16905092915050565b61250c6128f1565b73ffffffffffffffffffffffffffffffffffffffff1661252a611c41565b73ffffffffffffffffffffffffffffffffffffffff1614806125a0575061254f6128f1565b73ffffffffffffffffffffffffffffffffffffffff16600b60009054906101000a900473ffffffffffffffffffffffffffffffffffffffff1673ffffffffffffffffffffffffffffffffffffffff16145b6125df576040517f08c379a00000000000000000000000000000000000000000000000000000000081526004016125d6906145a5565b60405180910390fd5b600073ffffffffffffffffffffffffffffffffffffffff168173ffffffffffffffffffffffffffffffffffffffff16141561264f576040517f08c379a000000000000000000000000000000000000000000000000000000000815260040161264690614dbb565b60405180910390fd5b61265881612d2e565b50565b6126636128f1565b73ffffffffffffffffffffffffffffffffffffffff16612681611c41565b73ffffffffffffffffffffffffffffffffffffffff1614806126f757506126a66128f1565b73ffffffffffffffffffffffffffffffffffffffff16600b60009054906101000a900473ffffffffffffffffffffffffffffffffffffffff1673ffffffffffffffffffffffffffffffffffffffff16145b612736576040517f08c379a000000000000000000000000000000000000000000000000000000000815260040161272d906145a5565b60405180910390fd5b6000601360006101000a81548160ff021916908315150217905550565b6000610ee46012541061279b576040517f08c379a00000000000000000000000000000000000000000000000000000000081526004016127929061467d565b60405180910390fd5b601154905090565b60007f80ac58cd000000000000000000000000000000000000000000000000000000007bffffffffffffffffffffffffffffffffffffffffffffffffffffffff1916827bffffffffffffffffffffffffffffffffffffffffffffffffffffffff1916148061286e57507f5b5e139f000000000000000000000000000000000000000000000000000000007bffffffffffffffffffffffffffffffffffffffffffffffffffffffff1916827bffffffffffffffffffffffffffffffffffffffffffffffffffffffff1916145b8061287e575061287d82613134565b5b9050919050565b60008073ffffffffffffffffffffffffffffffffffffffff166002600084815260200190815260200160002060009054906101000a900473ffffffffffffffffffffffffffffffffffffffff1673ffffffffffffffffffffffffffffffffffffffff1614159050919050565b600033905090565b816004600083815260200190815260200160002060006101000a81548173ffffffffffffffffffffffffffffffffffffffff021916908373ffffffffffffffffffffffffffffffffffffffff160217905550808273ffffffffffffffffffffffffffffffffffffffff1661296c836113ec565b73ffffffffffffffffffffffffffffffffffffffff167f8c5be1e5ebec7d5bd14f71427d1e84f3dd0314c0f7b2291e5b200ac8c7c3b92560405160405180910390a45050565b60006129bd82612885565b6129fc576040517f08c379a00000000000000000000000000000000000000000000000000000000081526004016129f390614e4d565b60405180910390fd5b6000612a07836113ec565b90508073ffffffffffffffffffffffffffffffffffffffff168473ffffffffffffffffffffffffffffffffffffffff161480612a7657508373ffffffffffffffffffffffffffffffffffffffff16612a5e84610a6f565b73ffffffffffffffffffffffffffffffffffffffff16145b80612a875750612a868185612470565b5b91505092915050565b8273ffffffffffffffffffffffffffffffffffffffff16612ab0826113ec565b73ffffffffffffffffffffffffffffffffffffffff1614612b06576040517f08c379a0000000000000000000000000000000000000000000000000000000008152600401612afd90614edf565b60405180910390fd5b600073ffffffffffffffffffffffffffffffffffffffff168273ffffffffffffffffffffffffffffffffffffffff161415612b76576040517f08c379a0000000000000000000000000000000000000000000000000000000008152600401612b6d90614f71565b60405180910390fd5b612b8183838361319e565b612b8c6000826128f9565b6001600360008573ffffffffffffffffffffffffffffffffffffffff1673ffffffffffffffffffffffffffffffffffffffff1681526020019081526020016000206000828254612bdc9190614f91565b925050819055506001600360008473ffffffffffffffffffffffffffffffffffffffff1673ffffffffffffffffffffffffffffffffffffffff1681526020019081526020016000206000828254612c3391906146cc565b92505081905550816002600083815260200190815260200160002060006101000a81548173ffffffffffffffffffffffffffffffffffffffff021916908373ffffffffffffffffffffffffffffffffffffffff160217905550808273ffffffffffffffffffffffffffffffffffffffff168473ffffffffffffffffffffffffffffffffffffffff167fddf252ad1be2c89b69c2b068fc378daa952ba7f163c4a11628f55a4df523b3ef60405160405180910390a4505050565b6001816000016000828254019250508190555050565b600081600001549050919050565b612d2a8282604051806020016040528060008152506132b2565b5050565b6000600a60009054906101000a900473ffffffffffffffffffffffffffffffffffffffff16905081600a60006101000a81548173ffffffffffffffffffffffffffffffffffffffff021916908373ffffffffffffffffffffffffffffffffffffffff1602179055508173ffffffffffffffffffffffffffffffffffffffff168173ffffffffffffffffffffffffffffffffffffffff167f8be0079c531659141344cd1fd0a4f28419497f9722a3daafe3b4186f6b6457e060405160405180910390a35050565b60008183612e029190614fc5565b905092915050565b8173ffffffffffffffffffffffffffffffffffffffff168373ffffffffffffffffffffffffffffffffffffffff161415612e79576040517f08c379a0000000000000000000000000000000000000000000000000000000008152600401612e709061506b565b60405180910390fd5b80600560008573ffffffffffffffffffffffffffffffffffffffff1673ffffffffffffffffffffffffffffffffffffffff16815260200190815260200160002060008473ffffffffffffffffffffffffffffffffffffffff1673ffffffffffffffffffffffffffffffffffffffff16815260200190815260200160002060006101000a81548160ff0219169083151502179055508173ffffffffffffffffffffffffffffffffffffffff168373ffffffffffffffffffffffffffffffffffffffff167f17307eab39ab6107e8899845ad3d59bd9653f200f220920489ca2b5937696c3183604051612f6a9190613ae7565b60405180910390a3505050565b612f82848484612a90565b612f8e8484848461330d565b612fcd576040517f08c379a0000000000000000000000000000000000000000000000000000000008152600401612fc4906150fd565b60405180910390fd5b50505050565b6060600082141561301b576040518060400160405280600181526020017f3000000000000000000000000000000000000000000000000000000000000000815250905061312f565b600082905060005b6000821461304d57808061303690614722565b915050600a82613046919061514c565b9150613023565b60008167ffffffffffffffff81111561306957613068613d6f565b5b6040519080825280601f01601f19166020018201604052801561309b5781602001600182028036833780820191505090505b5090505b60008514613128576001826130b49190614f91565b9150600a856130c3919061517d565b60306130cf91906146cc565b60f81b8183815181106130e5576130e4614869565b5b60200101907effffffffffffffffffffffffffffffffffffffffffffffffffffffffffffff1916908160001a905350600a85613121919061514c565b945061309f565b8093505050505b919050565b60007f01ffc9a7000000000000000000000000000000000000000000000000000000007bffffffffffffffffffffffffffffffffffffffffffffffffffffffff1916827bffffffffffffffffffffffffffffffffffffffffffffffffffffffff1916149050919050565b6131a98383836134a4565b600073ffffffffffffffffffffffffffffffffffffffff168373ffffffffffffffffffffffffffffffffffffffff1614156131ec576131e7816134a9565b61322b565b8173ffffffffffffffffffffffffffffffffffffffff168373ffffffffffffffffffffffffffffffffffffffff161461322a5761322983826134f2565b5b5b600073ffffffffffffffffffffffffffffffffffffffff168273ffffffffffffffffffffffffffffffffffffffff16141561326e576132698161365f565b6132ad565b8273ffffffffffffffffffffffffffffffffffffffff168273ffffffffffffffffffffffffffffffffffffffff16146132ac576132ab8282613730565b5b5b505050565b6132bc83836137af565b6132c9600084848461330d565b613308576040517f08c379a00000000000000000000000000000000000000000000000000000000081526004016132ff906150fd565b60405180910390fd5b505050565b600061332e8473ffffffffffffffffffffffffffffffffffffffff1661397d565b15613497578373ffffffffffffffffffffffffffffffffffffffff1663150b7a026133576128f1565b8786866040518563ffffffff1660e01b81526004016133799493929190615203565b602060405180830381600087803b15801561339357600080fd5b505af19250505080156133c457506040513d601f19601f820116820180604052508101906133c19190615264565b60015b613447573d80600081146133f4576040519150601f19603f3d011682016040523d82523d6000602084013e6133f9565b606091505b5060008151141561343f576040517f08c379a0000000000000000000000000000000000000000000000000000000008152600401613436906150fd565b60405180910390fd5b805181602001fd5b63150b7a0260e01b7bffffffffffffffffffffffffffffffffffffffffffffffffffffffff1916817bffffffffffffffffffffffffffffffffffffffffffffffffffffffff19161491505061349c565b600190505b949350505050565b505050565b6008805490506009600083815260200190815260200160002081905550600881908060018154018082558091505060019003906000526020600020016000909190919091505550565b600060016134ff84611804565b6135099190614f91565b90506000600760008481526020019081526020016000205490508181146135ee576000600660008673ffffffffffffffffffffffffffffffffffffffff1673ffffffffffffffffffffffffffffffffffffffff168152602001908152602001600020600084815260200190815260200160002054905080600660008773ffffffffffffffffffffffffffffffffffffffff1673ffffffffffffffffffffffffffffffffffffffff168152602001908152602001600020600084815260200190815260200160002081905550816007600083815260200190815260200160002081905550505b6007600084815260200190815260200160002060009055600660008573ffffffffffffffffffffffffffffffffffffffff1673ffffffffffffffffffffffffffffffffffffffff16815260200190815260200160002060008381526020019081526020016000206000905550505050565b600060016008805490506136739190614f91565b90506000600960008481526020019081526020016000205490506000600883815481106136a3576136a2614869565b5b9060005260206000200154905080600883815481106136c5576136c4614869565b5b90600052602060002001819055508160096000838152602001908152602001600020819055506009600085815260200190815260200160002060009055600880548061371457613713615291565b5b6001900381819060005260206000200160009055905550505050565b600061373b83611804565b905081600660008573ffffffffffffffffffffffffffffffffffffffff1673ffffffffffffffffffffffffffffffffffffffff168152602001908152602001600020600083815260200190815260200160002081905550806007600084815260200190815260200160002081905550505050565b600073ffffffffffffffffffffffffffffffffffffffff168273ffffffffffffffffffffffffffffffffffffffff16141561381f576040517f08c379a00000000000000000000000000000000000000000000000000000000081526004016138169061530c565b60405180910390fd5b61382881612885565b15613868576040517f08c379a000000000000000000000000000000000000000000000000000000000815260040161385f90615378565b60405180910390fd5b6138746000838361319e565b6001600360008473ffffffffffffffffffffffffffffffffffffffff1673ffffffffffffffffffffffffffffffffffffffff16815260200190815260200160002060008282546138c491906146cc565b92505081905550816002600083815260200190815260200160002060006101000a81548173ffffffffffffffffffffffffffffffffffffffff021916908373ffffffffffffffffffffffffffffffffffffffff160217905550808273ffffffffffffffffffffffffffffffffffffffff16600073ffffffffffffffffffffffffffffffffffffffff167fddf252ad1be2c89b69c2b068fc378daa952ba7f163c4a11628f55a4df523b3ef60405160405180910390a45050565b600080823b905060008111915050919050565b82805461399c9061424d565b90600052602060002090601f0160209004810192826139be5760008555613a05565b82601f106139d757805160ff1916838001178555613a05565b82800160010185558215613a05579182015b82811115613a045782518255916020019190600101906139e9565b5b509050613a129190613a16565b5090565b5b80821115613a2f576000816000905550600101613a17565b5090565b6000604051905090565b600080fd5b600080fd5b60007fffffffff0000000000000000000000000000000000000000000000000000000082169050919050565b613a7c81613a47565b8114613a8757600080fd5b50565b600081359050613a9981613a73565b92915050565b600060208284031215613ab557613ab4613a3d565b5b6000613ac384828501613a8a565b91505092915050565b60008115159050919050565b613ae181613acc565b82525050565b6000602082019050613afc6000830184613ad8565b92915050565b600081519050919050565b600082825260208201905092915050565b60005b83811015613b3c578082015181840152602081019050613b21565b83811115613b4b576000848401525b50505050565b6000601f19601f8301169050919050565b6000613b6d82613b02565b613b778185613b0d565b9350613b87818560208601613b1e565b613b9081613b51565b840191505092915050565b60006020820190508181036000830152613bb58184613b62565b905092915050565b6000819050919050565b613bd081613bbd565b8114613bdb57600080fd5b50565b600081359050613bed81613bc7565b92915050565b600060208284031215613c0957613c08613a3d565b5b6000613c1784828501613bde565b91505092915050565b600073ffffffffffffffffffffffffffffffffffffffff82169050919050565b6000613c4b82613c20565b9050919050565b613c5b81613c40565b82525050565b6000602082019050613c766000830184613c52565b92915050565b613c8581613c40565b8114613c9057600080fd5b50565b600081359050613ca281613c7c565b92915050565b60008060408385031215613cbf57613cbe613a3d565b5b6000613ccd85828601613c93565b9250506020613cde85828601613bde565b9150509250929050565b613cf181613bbd565b82525050565b6000602082019050613d0c6000830184613ce8565b92915050565b600080600060608486031215613d2b57613d2a613a3d565b5b6000613d3986828701613c93565b9350506020613d4a86828701613c93565b9250506040613d5b86828701613bde565b9150509250925092565b600080fd5b600080fd5b7f4e487b7100000000000000000000000000000000000000000000000000000000600052604160045260246000fd5b613da782613b51565b810181811067ffffffffffffffff82111715613dc657613dc5613d6f565b5b80604052505050565b6000613dd9613a33565b9050613de58282613d9e565b919050565b600067ffffffffffffffff821115613e0557613e04613d6f565b5b613e0e82613b51565b9050602081019050919050565b82818337600083830152505050565b6000613e3d613e3884613dea565b613dcf565b905082815260208101848484011115613e5957613e58613d6a565b5b613e64848285613e1b565b509392505050565b600082601f830112613e8157613e80613d65565b5b8135613e91848260208601613e2a565b91505092915050565b600060208284031215613eb057613eaf613a3d565b5b600082013567ffffffffffffffff811115613ece57613ecd613a42565b5b613eda84828501613e6c565b91505092915050565b613eec81613acc565b8114613ef757600080fd5b50565b600081359050613f0981613ee3565b92915050565b600060208284031215613f2557613f24613a3d565b5b6000613f3384828501613efa565b91505092915050565b600067ffffffffffffffff821115613f5757613f56613d6f565b5b602082029050602081019050919050565b600080fd5b6000613f80613f7b84613f3c565b613dcf565b90508083825260208201905060208402830185811115613fa357613fa2613f68565b5b835b81811015613fcc5780613fb88882613c93565b845260208401935050602081019050613fa5565b5050509392505050565b600082601f830112613feb57613fea613d65565b5b8135613ffb848260208601613f6d565b91505092915050565b60006020828403121561401a57614019613a3d565b5b600082013567ffffffffffffffff81111561403857614037613a42565b5b61404484828501613fd6565b91505092915050565b60006020828403121561406357614062613a3d565b5b600061407184828501613c93565b91505092915050565b6000806040838503121561409157614090613a3d565b5b600061409f85828601613c93565b92505060206140b085828601613efa565b9150509250929050565b600067ffffffffffffffff8211156140d5576140d4613d6f565b5b6140de82613b51565b9050602081019050919050565b60006140fe6140f9846140ba565b613dcf565b90508281526020810184848401111561411a57614119613d6a565b5b614125848285613e1b565b509392505050565b600082601f83011261414257614141613d65565b5b81356141528482602086016140eb565b91505092915050565b6000806000806080858703121561417557614174613a3d565b5b600061418387828801613c93565b945050602061419487828801613c93565b93505060406141a587828801613bde565b925050606085013567ffffffffffffffff8111156141c6576141c5613a42565b5b6141d28782880161412d565b91505092959194509250565b600080604083850312156141f5576141f4613a3d565b5b600061420385828601613c93565b925050602061421485828601613c93565b9150509250929050565b7f4e487b7100000000000000000000000000000000000000000000000000000000600052602260045260246000fd5b6000600282049050600182168061426557607f821691505b602082108114156142795761427861421e565b5b50919050565b7f4552433732313a20617070726f76656420717565727920666f72206e6f6e657860008201527f697374656e7420746f6b656e0000000000000000000000000000000000000000602082015250565b60006142db602c83613b0d565b91506142e68261427f565b604082019050919050565b6000602082019050818103600083015261430a816142ce565b9050919050565b7f4552433732313a20617070726f76616c20746f2063757272656e74206f776e6560008201527f7200000000000000000000000000000000000000000000000000000000000000602082015250565b600061436d602183613b0d565b915061437882614311565b604082019050919050565b6000602082019050818103600083015261439c81614360565b9050919050565b7f4552433732313a20617070726f76652063616c6c6572206973206e6f74206f7760008201527f6e6572206e6f7220617070726f76656420666f7220616c6c0000000000000000602082015250565b60006143ff603883613b0d565b915061440a826143a3565b604082019050919050565b6000602082019050818103600083015261442e816143f2565b9050919050565b7f4552433732313a207472616e736665722063616c6c6572206973206e6f74206f60008201527f776e6572206e6f7220617070726f766564000000000000000000000000000000602082015250565b6000614491603183613b0d565b915061449c82614435565b604082019050919050565b600060208201905081810360008301526144c081614484565b9050919050565b7f455243373231456e756d657261626c653a206f776e657220696e646578206f7560008201527f74206f6620626f756e6473000000000000000000000000000000000000000000602082015250565b6000614523602b83613b0d565b915061452e826144c7565b604082019050919050565b6000602082019050818103600083015261455281614516565b9050919050565b7f4f776e61626c653a2063616c6c6572206973206e6f7420746865206f776e6572600082015250565b600061458f602083613b0d565b915061459a82614559565b602082019050919050565b600060208201905081810360008301526145be81614582565b9050919050565b7f5061757365642100000000000000000000000000000000000000000000000000600082015250565b60006145fb600783613b0d565b9150614606826145c5565b602082019050919050565b6000602082019050818103600083015261462a816145ee565b9050919050565b7f53616c652068617320616c726561647920656e64656400000000000000000000600082015250565b6000614667601683613b0d565b915061467282614631565b602082019050919050565b600060208201905081810360008301526146968161465a565b9050919050565b7f4e487b7100000000000000000000000000000000000000000000000000000000600052601160045260246000fd5b60006146d782613bbd565b91506146e283613bbd565b9250827fffffffffffffffffffffffffffffffffffffffffffffffffffffffffffffffff038211156147175761471661469d565b5b828201905092915050565b600061472d82613bbd565b91507fffffffffffffffffffffffffffffffffffffffffffffffffffffffffffffffff8214156147605761475f61469d565b5b600182019050919050565b7f4f6e676f696e67204d696e74696e670000000000000000000000000000000000600082015250565b60006147a1600f83613b0d565b91506147ac8261476b565b602082019050919050565b600060208201905081810360008301526147d081614794565b9050919050565b7f455243373231456e756d657261626c653a20676c6f62616c20696e646578206f60008201527f7574206f6620626f756e64730000000000000000000000000000000000000000602082015250565b6000614833602c83613b0d565b915061483e826147d7565b604082019050919050565b6000602082019050818103600083015261486281614826565b9050919050565b7f4e487b7100000000000000000000000000000000000000000000000000000000600052603260045260246000fd5b7f4552433732313a206f776e657220717565727920666f72206e6f6e657869737460008201527f656e7420746f6b656e0000000000000000000000000000000000000000000000602082015250565b60006148f4602983613b0d565b91506148ff82614898565b604082019050919050565b60006020820190508181036000830152614923816148e7565b9050919050565b7f4552433732313a2062616c616e636520717565727920666f7220746865207a6560008201527f726f206164647265737300000000000000000000000000000000000000000000602082015250565b6000614986602a83613b0d565b91506149918261492a565b604082019050919050565b600060208201905081810360008301526149b581614979565b9050919050565b7f5a65726f20416464726573730000000000000000000000000000000000000000600082015250565b60006149f2600c83613b0d565b91506149fd826149bc565b602082019050919050565b60006020820190508181036000830152614a21816149e5565b9050919050565b7f4554482076616c75652073656e74206973206e6f7420636f7272656374000000600082015250565b6000614a5e601d83613b0d565b9150614a6982614a28565b602082019050919050565b60006020820190508181036000830152614a8d81614a51565b9050919050565b7f4e6f742000000000000000000000000000000000000000000000000000000000600082015250565b6000614aca600483613b0d565b9150614ad582614a94565b602082019050919050565b60006020820190508181036000830152614af981614abd565b9050919050565b7f4578636564656420746865204d696e74696e6720436f756e7400000000000000600082015250565b6000614b36601983613b0d565b9150614b4182614b00565b602082019050919050565b60006020820190508181036000830152614b6581614b29565b9050919050565b7f4552433732314d657461646174613a2055524920717565727920666f72206e6f60008201527f6e6578697374656e7420746f6b656e0000000000000000000000000000000000602082015250565b6000614bc8602f83613b0d565b9150614bd382614b6c565b604082019050919050565b60006020820190508181036000830152614bf781614bbb565b9050919050565b600081905092915050565b60008190508160005260206000209050919050565b60008154614c2b8161424d565b614c358186614bfe565b94506001821660008114614c505760018114614c6157614c94565b60ff19831686528186019350614c94565b614c6a85614c09565b60005b83811015614c8c57815481890152600182019150602081019050614c6d565b838801955050505b50505092915050565b6000614ca882613b02565b614cb28185614bfe565b9350614cc2818560208601613b1e565b80840191505092915050565b7f2e6a736f6e000000000000000000000000000000000000000000000000000000600082015250565b6000614d04600583614bfe565b9150614d0f82614cce565b600582019050919050565b6000614d268285614c1e565b9150614d328284614c9d565b9150614d3d82614cf7565b91508190509392505050565b7f4f776e61626c653a206e6577206f776e657220697320746865207a65726f206160008201527f6464726573730000000000000000000000000000000000000000000000000000602082015250565b6000614da5602683613b0d565b9150614db082614d49565b604082019050919050565b60006020820190508181036000830152614dd481614d98565b9050919050565b7f4552433732313a206f70657261746f7220717565727920666f72206e6f6e657860008201527f697374656e7420746f6b656e0000000000000000000000000000000000000000602082015250565b6000614e37602c83613b0d565b9150614e4282614ddb565b604082019050919050565b60006020820190508181036000830152614e6681614e2a565b9050919050565b7f4552433732313a207472616e73666572206f6620746f6b656e2074686174206960008201527f73206e6f74206f776e0000000000000000000000000000000000000000000000602082015250565b6000614ec9602983613b0d565b9150614ed482614e6d565b604082019050919050565b60006020820190508181036000830152614ef881614ebc565b9050919050565b7f4552433732313a207472616e7366657220746f20746865207a65726f2061646460008201527f7265737300000000000000000000000000000000000000000000000000000000602082015250565b6000614f5b602483613b0d565b9150614f6682614eff565b604082019050919050565b60006020820190508181036000830152614f8a81614f4e565b9050919050565b6000614f9c82613bbd565b9150614fa783613bbd565b925082821015614fba57614fb961469d565b5b828203905092915050565b6000614fd082613bbd565b9150614fdb83613bbd565b9250817fffffffffffffffffffffffffffffffffffffffffffffffffffffffffffffffff04831182151516156150145761501361469d565b5b828202905092915050565b7f4552433732313a20617070726f766520746f2063616c6c657200000000000000600082015250565b6000615055601983613b0d565b91506150608261501f565b602082019050919050565b6000602082019050818103600083015261508481615048565b9050919050565b7f4552433732313a207472616e7366657220746f206e6f6e20455243373231526560008201527f63656976657220696d706c656d656e7465720000000000000000000000000000602082015250565b60006150e7603283613b0d565b91506150f28261508b565b604082019050919050565b60006020820190508181036000830152615116816150da565b9050919050565b7f4e487b7100000000000000000000000000000000000000000000000000000000600052601260045260246000fd5b600061515782613bbd565b915061516283613bbd565b9250826151725761517161511d565b5b828204905092915050565b600061518882613bbd565b915061519383613bbd565b9250826151a3576151a261511d565b5b828206905092915050565b600081519050919050565b600082825260208201905092915050565b60006151d5826151ae565b6151df81856151b9565b93506151ef818560208601613b1e565b6151f881613b51565b840191505092915050565b60006080820190506152186000830187613c52565b6152256020830186613c52565b6152326040830185613ce8565b818103606083015261524481846151ca565b905095945050505050565b60008151905061525e81613a73565b92915050565b60006020828403121561527a57615279613a3d565b5b60006152888482850161524f565b91505092915050565b7f4e487b7100000000000000000000000000000000000000000000000000000000600052603160045260246000fd5b7f4552433732313a206d696e7420746f20746865207a65726f2061646472657373600082015250565b60006152f6602083613b0d565b9150615301826152c0565b602082019050919050565b60006020820190508181036000830152615325816152e9565b9050919050565b7f4552433732313a20746f6b656e20616c7265616479206d696e74656400000000600082015250565b6000615362601c83613b0d565b915061536d8261532c565b602082019050919050565b6000602082019050818103600083015261539181615355565b905091905056fea264697066735822122061c0b3c8994e280819a93c1239edb1ce517fa691b09f78cadd3ed977a8c7569464736f6c6343000809003368747470733a2f2f677265617464616e6561692e6d7970696e6174612e636c6f75642f697066732f516d645771506a67316b39686f77736e75374e4756354746675276476f51765244414c6d6676317a676970354b412f756e72657665616c65642e6a736f6e",
  "linkReferences": {},
  "deployedLinkReferences": {}
}